{
  "contractName": "DiplomaProvider",
  "abi": [
    {
      "anonymous": false,
      "inputs": [
        {
          "indexed": false,
          "internalType": "string",
          "name": "id",
          "type": "string"
        },
        {
          "indexed": false,
          "internalType": "string",
          "name": "firstName",
          "type": "string"
        },
        {
          "indexed": false,
          "internalType": "string",
          "name": "lastName",
          "type": "string"
        },
        {
          "indexed": false,
          "internalType": "int256",
          "name": "mark",
          "type": "int256"
        },
        {
          "indexed": false,
          "internalType": "string",
          "name": "title",
          "type": "string"
        },
        {
          "indexed": false,
          "internalType": "string",
          "name": "dType",
          "type": "string"
        },
        {
          "indexed": false,
          "internalType": "address",
          "name": "issuer",
          "type": "address"
        },
        {
          "indexed": false,
          "internalType": "bool",
          "name": "emited",
          "type": "bool"
        }
      ],
      "name": "DiplomaCreated",
      "type": "event"
    },
    {
      "anonymous": false,
      "inputs": [
        {
          "indexed": false,
          "internalType": "string",
          "name": "id",
          "type": "string"
        },
        {
          "indexed": false,
          "internalType": "string",
          "name": "firstName",
          "type": "string"
        },
        {
          "indexed": false,
          "internalType": "string",
          "name": "lastName",
          "type": "string"
        },
        {
          "indexed": false,
          "internalType": "int256",
          "name": "mark",
          "type": "int256"
        },
        {
          "indexed": false,
          "internalType": "string",
          "name": "title",
          "type": "string"
        },
        {
          "indexed": false,
          "internalType": "string",
          "name": "dType",
          "type": "string"
        },
        {
          "indexed": false,
          "internalType": "address",
          "name": "owner",
          "type": "address"
        },
        {
          "indexed": false,
          "internalType": "address",
          "name": "issuer",
          "type": "address"
        },
        {
          "indexed": false,
          "internalType": "bool",
          "name": "emited",
          "type": "bool"
        }
      ],
      "name": "DiplomaSent",
      "type": "event"
    },
    {
      "constant": true,
      "inputs": [],
      "name": "diplomaCount",
      "outputs": [
        {
          "internalType": "uint256",
          "name": "",
          "type": "uint256"
        }
      ],
      "payable": false,
      "stateMutability": "view",
      "type": "function"
    },
    {
      "constant": false,
      "inputs": [
        {
          "internalType": "string",
          "name": "_id",
          "type": "string"
        },
        {
          "internalType": "string",
          "name": "_firstName",
          "type": "string"
        },
        {
          "internalType": "string",
          "name": "_lastName",
          "type": "string"
        },
        {
          "internalType": "int256",
          "name": "_mark",
          "type": "int256"
        },
        {
          "internalType": "string",
          "name": "_title",
          "type": "string"
        },
        {
          "internalType": "string",
          "name": "_dType",
          "type": "string"
        }
      ],
      "name": "createDiploma",
      "outputs": [],
      "payable": false,
      "stateMutability": "nonpayable",
      "type": "function"
    },
    {
      "constant": false,
      "inputs": [
        {
          "internalType": "uint256",
          "name": "_id",
          "type": "uint256"
        }
      ],
      "name": "sendDiploma",
      "outputs": [],
      "payable": false,
      "stateMutability": "nonpayable",
      "type": "function"
    }
  ],
  "bytecode": "0x60806040526000805534801561001457600080fd5b50611278806100246000396000f3fe608060405234801561001057600080fd5b50600436106100415760003560e01c8063146d4612146100465780636920613f14610367578063f6ab980e14610385575b600080fd5b610365600480360360c081101561005c57600080fd5b810190808035906020019064010000000081111561007957600080fd5b82018360208201111561008b57600080fd5b803590602001918460018302840111640100000000831117156100ad57600080fd5b91908080601f016020809104026020016040519081016040528093929190818152602001838380828437600081840152601f19601f8201169050808301925050505050505091929192908035906020019064010000000081111561011057600080fd5b82018360208201111561012257600080fd5b8035906020019184600183028401116401000000008311171561014457600080fd5b91908080601f016020809104026020016040519081016040528093929190818152602001838380828437600081840152601f19601f820116905080830192505050505050509192919290803590602001906401000000008111156101a757600080fd5b8201836020820111156101b957600080fd5b803590602001918460018302840111640100000000831117156101db57600080fd5b91908080601f016020809104026020016040519081016040528093929190818152602001838380828437600081840152601f19601f820116905080830192505050505050509192919290803590602001909291908035906020019064010000000081111561024857600080fd5b82018360208201111561025a57600080fd5b8035906020019184600183028401116401000000008311171561027c57600080fd5b91908080601f016020809104026020016040519081016040528093929190818152602001838380828437600081840152601f19601f820116905080830192505050505050509192919290803590602001906401000000008111156102df57600080fd5b8201836020820111156102f157600080fd5b8035906020019184600183028401116401000000008311171561031357600080fd5b91908080601f016020809104026020016040519081016040528093929190818152602001838380828437600081840152601f19601f8201169050808301925050505050505091929192905050506103b3565b005b61036f61084e565b6040518082815260200191505060405180910390f35b6103b16004803603602081101561039b57600080fd5b8101908080359060200190929190505050610854565b005b600080815480929190600101919050555060016040518061012001604052808881526020018781526020018681526020018581526020018481526020018381526020013373ffffffffffffffffffffffffffffffffffffffff1681526020013373ffffffffffffffffffffffffffffffffffffffff1681526020016000151581525090806001815401808255809150509060018203906000526020600020906008020160009091929091909150600082015181600001908051906020019061047c929190611124565b506020820151816001019080519060200190610499929190611124565b5060408201518160020190805190602001906104b6929190611124565b506060820151816003015560808201518160040190805190602001906104dd929190611124565b5060a08201518160050190805190602001906104fa929190611124565b5060c08201518160060160006101000a81548173ffffffffffffffffffffffffffffffffffffffff021916908373ffffffffffffffffffffffffffffffffffffffff16021790555060e08201518160070160006101000a81548173ffffffffffffffffffffffffffffffffffffffff021916908373ffffffffffffffffffffffffffffffffffffffff1602179055506101008201518160070160146101000a81548160ff0219169083151502179055505050507f1d12d4e6790ba409edaa02ffc8c1d6d15556da14fe28afe6f0ede9c931fea69f8686868686863360006040518080602001806020018060200189815260200180602001806020018873ffffffffffffffffffffffffffffffffffffffff1673ffffffffffffffffffffffffffffffffffffffff1681526020018715151515815260200186810386528e818151815260200191508051906020019080838360005b8381101561066957808201518184015260208101905061064e565b50505050905090810190601f1680156106965780820380516001836020036101000a031916815260200191505b5086810385528d818151815260200191508051906020019080838360005b838110156106cf5780820151818401526020810190506106b4565b50505050905090810190601f1680156106fc5780820380516001836020036101000a031916815260200191505b5086810384528c818151815260200191508051906020019080838360005b8381101561073557808201518184015260208101905061071a565b50505050905090810190601f1680156107625780820380516001836020036101000a031916815260200191505b5086810383528a818151815260200191508051906020019080838360005b8381101561079b578082015181840152602081019050610780565b50505050905090810190601f1680156107c85780820380516001836020036101000a031916815260200191505b50868103825289818151815260200191508051906020019080838360005b838110156108015780820151818401526020810190506107e6565b50505050905090810190601f16801561082e5780820380516001836020036101000a031916815260200191505b509d505050505050505050505050505060405180910390a1505050505050565b60005481565b61085c6111a4565b6001828154811061086957fe5b906000526020600020906008020160405180610120016040529081600082018054600181600116156101000203166002900480601f01602080910402602001604051908101604052809291908181526020018280546001816001161561010002031660029004801561091c5780601f106108f15761010080835404028352916020019161091c565b820191906000526020600020905b8154815290600101906020018083116108ff57829003601f168201915b50505050508152602001600182018054600181600116156101000203166002900480601f0160208091040260200160405190810160405280929190818152602001828054600181600116156101000203166002900480156109be5780601f10610993576101008083540402835291602001916109be565b820191906000526020600020905b8154815290600101906020018083116109a157829003601f168201915b50505050508152602001600282018054600181600116156101000203166002900480601f016020809104026020016040519081016040528092919081815260200182805460018160011615610100020316600290048015610a605780601f10610a3557610100808354040283529160200191610a60565b820191906000526020600020905b815481529060010190602001808311610a4357829003601f168201915b5050505050815260200160038201548152602001600482018054600181600116156101000203166002900480601f016020809104026020016040519081016040528092919081815260200182805460018160011615610100020316600290048015610b0c5780601f10610ae157610100808354040283529160200191610b0c565b820191906000526020600020905b815481529060010190602001808311610aef57829003601f168201915b50505050508152602001600582018054600181600116156101000203166002900480601f016020809104026020016040519081016040528092919081815260200182805460018160011615610100020316600290048015610bae5780601f10610b8357610100808354040283529160200191610bae565b820191906000526020600020905b815481529060010190602001808311610b9157829003601f168201915b505050505081526020016006820160009054906101000a900473ffffffffffffffffffffffffffffffffffffffff1673ffffffffffffffffffffffffffffffffffffffff1673ffffffffffffffffffffffffffffffffffffffff1681526020016007820160009054906101000a900473ffffffffffffffffffffffffffffffffffffffff1673ffffffffffffffffffffffffffffffffffffffff1673ffffffffffffffffffffffffffffffffffffffff1681526020016007820160149054906101000a900460ff1615151515815250509050338160c0019073ffffffffffffffffffffffffffffffffffffffff16908173ffffffffffffffffffffffffffffffffffffffff16815250506001816101000190151590811515815250508060018381548110610cd857fe5b90600052602060002090600802016000820151816000019080519060200190610d02929190611124565b506020820151816001019080519060200190610d1f929190611124565b506040820151816002019080519060200190610d3c929190611124565b50606082015181600301556080820151816004019080519060200190610d63929190611124565b5060a0820151816005019080519060200190610d80929190611124565b5060c08201518160060160006101000a81548173ffffffffffffffffffffffffffffffffffffffff021916908373ffffffffffffffffffffffffffffffffffffffff16021790555060e08201518160070160006101000a81548173ffffffffffffffffffffffffffffffffffffffff021916908373ffffffffffffffffffffffffffffffffffffffff1602179055506101008201518160070160146101000a81548160ff0219169083151502179055509050507f0392e381cc7350de293a3f741bed071e3b3f8290910cc4a3bca6b0fe173324e8816000015182602001518360400151846060015185608001518660a001518760c001518860e001516001604051808060200180602001806020018a815260200180602001806020018973ffffffffffffffffffffffffffffffffffffffff1673ffffffffffffffffffffffffffffffffffffffff1681526020018873ffffffffffffffffffffffffffffffffffffffff1673ffffffffffffffffffffffffffffffffffffffff1681526020018715151515815260200186810386528f818151815260200191508051906020019080838360005b83811015610f42578082015181840152602081019050610f27565b50505050905090810190601f168015610f6f5780820380516001836020036101000a031916815260200191505b5086810385528e818151815260200191508051906020019080838360005b83811015610fa8578082015181840152602081019050610f8d565b50505050905090810190601f168015610fd55780820380516001836020036101000a031916815260200191505b5086810384528d818151815260200191508051906020019080838360005b8381101561100e578082015181840152602081019050610ff3565b50505050905090810190601f16801561103b5780820380516001836020036101000a031916815260200191505b5086810383528b818151815260200191508051906020019080838360005b83811015611074578082015181840152602081019050611059565b50505050905090810190601f1680156110a15780820380516001836020036101000a031916815260200191505b5086810382528a818151815260200191508051906020019080838360005b838110156110da5780820151818401526020810190506110bf565b50505050905090810190601f1680156111075780820380516001836020036101000a031916815260200191505b509e50505050505050505050505050505060405180910390a15050565b828054600181600116156101000203166002900490600052602060002090601f016020900481019282601f1061116557805160ff1916838001178555611193565b82800160010185558215611193579182015b82811115611192578251825591602001919060010190611177565b5b5090506111a0919061121e565b5090565b604051806101200160405280606081526020016060815260200160608152602001600081526020016060815260200160608152602001600073ffffffffffffffffffffffffffffffffffffffff168152602001600073ffffffffffffffffffffffffffffffffffffffff1681526020016000151581525090565b61124091905b8082111561123c576000816000905550600101611224565b5090565b9056fea265627a7a723158200ddb5b991178743a30e055efe2675518e30dd903ad3bf73e6515e229d26103c464736f6c63430005100032",
  "source": "pragma solidity >= 0.4.25 <= 0.8.21;\n\n// SPDX-License-Identifier: MIT \ncontract DiplomaProvider {\n    uint public diplomaCount = 0;\n\n    struct Diploma {\n        string id;\n        string firstName;\n        string lastName;\n        int256 mark;\n        string title;\n        string dType;\n        address owner;\n        address issuer;\n        bool emitted;\n    }\n\n    event DiplomaCreated(\n        string id,\n        string firstName,\n        string lastName,\n        int256 mark,\n        string title,\n        string dType,\n        address issuer,\n        bool emited\n    );\n\n    event DiplomaSent(\n        string id,\n        string firstName,\n        string lastName,\n        int256 mark,\n        string title,\n        string dType,\n        address owner,\n        address issuer,\n        bool emited\n    );\n\n    Diploma[] diplomasArray;\n\n    function createDiploma(\n        string memory _id,\n        string memory _firstName,\n        string memory _lastName,\n        int256 _mark,\n        string memory _title,\n        string memory _dType\n    ) public {\n        diplomaCount++;\n        diplomasArray.push(Diploma(_id, _firstName, _lastName, _mark, _title, _dType, msg.sender, msg.sender, false));\n        emit DiplomaCreated(_id, _firstName, _lastName, _mark, _title, _dType, msg.sender, false);\n    }\n\n    function sendDiploma(uint256 _id) public {\n        Diploma memory _diploma = diplomasArray[_id];\n        _diploma.owner = msg.sender;\n        _diploma.emitted = true;\n        diplomasArray[_id] = _diploma;\n        \n        emit DiplomaSent(\n            _diploma.id,\n            _diploma.firstName,\n            _diploma.lastName,\n            _diploma.mark,\n            _diploma.title,\n            _diploma.dType,\n            _diploma.owner,\n            _diploma.issuer,\n            true\n        );\n    }\n}",
  "sourcePath": "/Users/dievaid/DigitalDiplomasSolidity/contracts/DiplomaProvider.sol",
  "compiler": {
    "name": "solc",
    "version": "0.5.16+commit.9c3226ce.Emscripten.clang"
  },
  "schemaVersion": "3.4.15",
  "updatedAt": "2023-09-03T17:46:34.523Z",
  "networkType": "ethereum",
  "devdoc": {
    "methods": {}
  },
  "userdoc": {
    "methods": {}
  }
}